:020000040800F2
:10000000180400209D0100086D0300082303000868
:1000100069030008850200082104000800000000B0
:100020000000000000000000000000009103000834
:1000300089020008000000006F030008BB030008ED
:10004000B7010008B7010008B7010008B7010008B0
:10005000B7010008B7010008B7010008B7010008A0
:10006000B7010008B7010008B7010008B701000890
:10007000B7010008B7010008B7010008B701000880
:10008000B7010008B7010008B7010008B701000870
:10009000B7010008B7010008B7010008B701000860
:1000A000B7010008B7010008B7010008B701000850
:1000B000B7010008B7010008B7010008B701000840
:1000C000B7010008B7010008B7010008B701000830
:1000D000B7010008B7010008B7010008B701000820
:1000E000B7010008B7010008B7010008B701000810
:1000F000B7010008B7010008B7010008B701000800
:10010000B7010008B7010008B7010008B7010008EF
:10011000B7010008B7010008B7010008B7010008DF
:10012000B7010008B7010008B7010008B7010008CF
:10013000B7010008B7010008B7010008B7010008BF
:10014000B7010008B7010008B7010008B7010008AF
:10015000B7010008B7010008B7010008B70100089F
:10016000B7010008B7010008B7010008B70100088F
:10017000B7010008B7010008B7010008B70100087F
:10018000B7010008B7010008DFF80CD000F068F8EC
:100190000048004709080008180400200648804766
:1001A00006480047FEE7FEE7FEE7FEE7FEE7FEE75C
:1001B000FEE7FEE7FEE7FEE7BD0300088901000851
:1001C000202A04DB203A00FA02F100207047914017
:1001D000C2F1200320FA03F3194390407047202A0C
:1001E00004DB203A21FA02F00021704721FA02F3E1
:1001F000D040C2F1200291400843194670472DE9D2
:10020000F05F0546002092469B468846064681469A
:1002100040241BE02846414647462246FFF7DFFFC1
:1002200053465A46C01A914110D3114618462246E9
:10023000FFF7C6FF2D1A67EB01084F462246012043
:100240000021FFF7BDFF17EB00094E41201EA4F16E
:100250000104DFDC484631462A464346BDE8F09FAC
:10026000064C074D06E0E06840F0010394E8070003
:1002700098471034AC42F6D3FFF78AFF3C090008D8
:100280005C09000800BFFEE77047F0B50A46002190
:100290000023002400BF3DE0012505FA01F31568A5
:1002A00005EA03049C4234D105684F000326BE4092
:1002B000B543056015794E00B540066835430560C5
:1002C0001579012D02D01579022D16D185684F00C0
:1002D0000326BE40B543856055794E00B54086681B
:1002E00035438560456801268E40B54345604568C5
:1002F00096798E40B6B235434560C5684F000326F7
:10030000BE40B543C560D5794E00B540C66835439B
:10031000C560491C1029BFD3F0BD418370470183DC
:10032000704700BFFEE700001CB50121202000F04F
:100330001FF84FF4C060009001208DF804000020E9
:100340008DF8060003208DF8050001208DF80700C8
:1003500069460448FFF799FF4FF4C0610148FFF771
:10036000DEFF1CBD0014024000BFFEE7704770476F
:1003700029B1064A12680243044B1A6004E0034A9A
:1003800012688243014B1A60704700003038024007
:100390007047042808D14FF0E021096941F00401B9
:1003A0004FF0E022116107E04FF0E021096921F0F0
:1003B00004014FF0E0221161704770471448006853
:1003C00040F47000124908601248006840F00100D3
:1003D0001049086000200F49083108600D48006886
:1003E0000D4908400B4908600C48091D0860081FAA
:1003F000006820F48020091F0860002005490C31A6
:1004000008604FF0006002498039086070470000C2
:1004100088ED00E000380240FFFFF6FE10300024B7
:1004200000BFFEE70FB4054B10B503A9044A0298BC
:1004300000F018F810BC5DF814FB0000E507000898
:100440000000002002E008C8121F08C1002AFAD1EB
:1004500070477047002001E001C1121F002AFBD144
:10046000704700002DE9FF4F8DB09B460F460446B4
:10047000002606E025280BD05A460F999047641CA9
:10048000761C20780028F5D111B03046BDE8F08FF9
:100490000025A8460122984900E0054314F8013FD1
:1004A000203B02FA03F00842F7D120782E2817D11A
:1004B00014F8010F45F004052A280ED06FF02F0222
:1004C0002078A0F1300109290AD808EB880102EB55
:1004D000410100EB0108641CF2E757F8048B641C2F
:1004E00020786C280DD004DC4C2812D06A2811D159
:1004F00004E074280DD07A280CD10AE045F40015E8
:1005000007E0617845F48015814202D1641C05F54D
:100510008015641C2278692A45D008DC002AB3D0F3
:10052000582A69D0632A10D0642A08D13BE0702A87
:1005300067D0732A13D0752A5CD0782A5CD0104615
:100540005A460F999047761CD3E017F8040B8DF8A4
:10055000000000208DF80100E946012003E057F873
:10056000049B4FF0FF3069074FF0000501D40AE00B
:100570006D1C45450DDA8542FADB19F80510002996
:10058000F6D106E06D1C8542FCDB19F80510002948
:10059000F8D12E4404E019F8010B5A460F99904700
:1005A0006D1EF8D2A5E00A200021CDE90801C5F3AF
:1005B000025002280DD001CFC117031E71F10003B4
:1005C0000DDA4FF0000CD0EB0C006CEB01012D2389
:1005D00008E0FF1D27F00707F7E80201EDE72B050C
:1005E00004D52B238DF8283001233BE0EB0739D0CD
:1005F0002023F7E70A2000E010200021CDE90801C0
:1006000007E01020002145F00405CDE908014FF076
:100610000808C5F3025002280FD001CF00214FF087
:10062000000A2B071FD5702A0DD0DDE908C38CF016
:10063000100C5CEA030C0CD015E0FF1D27F0070737
:10064000F7E80201EBE740228DF828204FF0010A7D
:100650000BE050EA010306D030238DF828308DF8E6
:10066000292002239A46582A04D024A20DF12009F9
:100670000B9209E026A2F9E7DDE90823FFF7BFFDA9
:100680000B9B9B5C09F8013D50EA0102F4D1ADEBF4
:10069000090020300890680701D44FF0010808993C
:1006A000884502DDA8EB010000E00020804600251F
:1006B00006E00AA85A46405D0F9990476D1C761CCB
:1006C0005545F6DB04E030205A460F999047761CDA
:1006D000B8F10001A8F10108F5DC05E019F8010BFB
:1006E0005A460F999047761C0899481E0890002991
:1006F000F4DC641CC5E60000092801003031323307
:10070000343536373839616263646566000000004D
:100710003031323334353637383941424344454637
:100720000000000010B504466FF00400FFF731FE32
:10073000E11704EB5171C1F3C701074A117010466C
:10074000007800EB4001C1EBC0104FF6FF7101EAE9
:10075000C0000249088010BD0E00002010000020DB
:1007600070B504464FF4077094FBF0F0C6B24FF436
:10077000077094FBF0F100FB114085B205E04FF4E7
:10078000077000F009F8701EC6B2002EF7D115B13F
:10079000284600F001F870BD0146114A12884A430C
:1007A0004FF0E0235A6100229A611A46126942F022
:1007B00001021A6100BF4FF0E022106900F001024F
:1007C0001AB100F48032002AF5D04FF0E02212690D
:1007D00022F001024FF0E0231A6100229A61704773
:1007E00010000020074A126802F0807242B100BF78
:1007F0004FF060421268002AFAD04FF06043187040
:1008000070470000FCED00E01CB500200090019056
:10081000A820FFF787FFFFF787FD38E04FF400714E
:100820001B48FFF77AFD4FF480611948FFF777FD09
:100830004FF4FA70FFF794FF4FF400711448FFF77C
:100840006EFD4FF480611248FFF767FD4FF4FA70B8
:10085000FFF786FF05210F4800F02CF8054600241D
:1008600013E005210B4800F025F8005D0DF80400A9
:100870002A5D291908A0FFF7D5FD1DF8042021469F
:1008800009A0FFF7CFFD601CC4B2052CE9DBC5E76A
:1008900000140240080000205B25785D203D2025E3
:1008A0007820202020200000675B25645D203D200B
:1008B00025780A002DE9FF4105460F4600200290E9
:1008C0000390009001902868009028798DF804002A
:1008D000002416E0285D02A908552E4602A8025DF4
:1008E00021460BA0FFF79EFD1DF8042021460CA019
:1008F000FFF798FD325D31190DA0FFF793FD601CE5
:10090000C4B2052CE6DB284604B0BDE8F081000047
:10091000615B25645D3D257820202020202000009B
:10092000635B25645D3D2578202020202020000089
:100930005B25785D203D2025780A00005C090008D1
:1009400000000020140000004404000870090008A2
:1009500014000020040400005404000800000000FB
:100960000000000011223344550000000000000088
:040000050800018965
:00000001FF
